:020000000F28C7
:10000800DE00030E8312AB000408AC000A08AD0042
:100018005F08AE005B288316FF23900083019E28AB
:100028008620162883129F1419289F181C281D281B
:1000380019281E281E08AF00B0012F08B000AF0114
:1000480083161E0883122F07B100003003180130F1
:100058003007B200AA010314AA0D3208A301A307AE
:100068003108A201A2079F1439289F183C283D286F
:1000780039283E281E08AF00B0012F08B000AF0194
:1000880083161E0883122F07B100003003180130B1
:100098003007B2000230AF002F08AA003208A501CD
:1000A800A5073108A401A407162816280F280C1C38
:1000B8005E285F287B280C10043085062A080A3A37
:1000C800031D6728682871282408383E8E002508F3
:1000D8000318013EFB3E8F007B282208383E8E0025
:1000E80023080318013EFB3E8F007B287B282E083F
:1000F800DF002D088A002C0884002B0E8300DE0EFA
:100108005E0E0900C1308316850095018B1283129B
:10011800101483160C148312901210121F131F143C
:100128009F17283083169F0083129F111F118B176A
:100138000B170800A001A101A201A301A401A501B8
:0E014800A601A701A801A901AA01830114289C
:02400E008A31F5
:00000001FF
